{
  "contractName": "Game",
  "abi": [
    {
      "anonymous": false,
      "inputs": [
        {
          "indexed": false,
          "internalType": "address",
          "name": "player",
          "type": "address"
        },
        {
          "indexed": false,
          "internalType": "string",
          "name": "result",
          "type": "string"
        },
        {
          "indexed": false,
          "internalType": "uint256",
          "name": "move",
          "type": "uint256"
        }
      ],
      "name": "logOutcome",
      "type": "event"
    },
    {
      "constant": true,
      "inputs": [],
      "name": "state",
      "outputs": [
        {
          "internalType": "uint256",
          "name": "",
          "type": "uint256"
        }
      ],
      "payable": false,
      "stateMutability": "view",
      "type": "function"
    },
    {
      "constant": true,
      "inputs": [],
      "name": "peakState",
      "outputs": [
        {
          "internalType": "uint256",
          "name": "",
          "type": "uint256"
        }
      ],
      "payable": false,
      "stateMutability": "view",
      "type": "function"
    },
    {
      "constant": false,
      "inputs": [
        {
          "internalType": "uint256",
          "name": "_move",
          "type": "uint256"
        }
      ],
      "name": "playMove",
      "outputs": [
        {
          "internalType": "string",
          "name": "",
          "type": "string"
        }
      ],
      "payable": false,
      "stateMutability": "nonpayable",
      "type": "function"
    },
    {
      "constant": true,
      "inputs": [
        {
          "internalType": "string",
          "name": "_random",
          "type": "string"
        }
      ],
      "name": "returnNumber",
      "outputs": [
        {
          "internalType": "string",
          "name": "",
          "type": "string"
        }
      ],
      "payable": false,
      "stateMutability": "pure",
      "type": "function"
    }
  ],
  "bytecode": "0x60806040526000805534801561001457600080fd5b50610818806100246000396000f3fe608060405234801561001057600080fd5b506004361061004c5760003560e01c8063076f19eb1461005157806345572c78146100f857806364d720901461022c578063c19d93fb1461024a575b600080fd5b61007d6004803603602081101561006757600080fd5b8101908080359060200190929190505050610268565b6040518080602001828103825283818151815260200191508051906020019080838360005b838110156100bd5780820151818401526020810190506100a2565b50505050905090810190601f1680156100ea5780820380516001836020036101000a031916815260200191505b509250505060405180910390f35b6101b16004803603602081101561010e57600080fd5b810190808035906020019064010000000081111561012b57600080fd5b82018360208201111561013d57600080fd5b8035906020019184600183028401116401000000008311171561015f57600080fd5b91908080601f016020809104026020016040519081016040528093929190818152602001838380828437600081840152601f19601f8201169050808301925050505050505091929192905050506107c0565b6040518080602001828103825283818151815260200191508051906020019080838360005b838110156101f15780820151818401526020810190506101d6565b50505050905090810190601f16801561021e5780820380516001836020036101000a031916815260200191505b509250505060405180910390f35b6102346107ca565b6040518082815260200191505060405180910390f35b6102526107d3565b6040518082815260200191505060405180910390f35b606081600054141561031d577fe994c7aa84307d7bae079fb6ac03a74b9a3173f46959863da3a34bd5f17ca61b3383604051808373ffffffffffffffffffffffffffffffffffffffff1673ffffffffffffffffffffffffffffffffffffffff16815260200180602001838152602001828103825260048152602001807f6472617700000000000000000000000000000000000000000000000000000000815250602001935050505060405180910390a16107bb565b60028214801561032e575060008054145b156103e55761033c826107d9565b7fe994c7aa84307d7bae079fb6ac03a74b9a3173f46959863da3a34bd5f17ca61b3383604051808373ffffffffffffffffffffffffffffffffffffffff1673ffffffffffffffffffffffffffffffffffffffff16815260200180602001838152602001828103825260088152602001807f796f75206c6f7365000000000000000000000000000000000000000000000000815250602001935050505060405180910390a16107ba565b6002821480156103f757506001600054145b156104ae57610405826107d9565b7fe994c7aa84307d7bae079fb6ac03a74b9a3173f46959863da3a34bd5f17ca61b3383604051808373ffffffffffffffffffffffffffffffffffffffff1673ffffffffffffffffffffffffffffffffffffffff16815260200180602001838152602001828103825260078152602001807f796f752077696e00000000000000000000000000000000000000000000000000815250602001935050505060405180910390a16107b9565b6001821480156104bf575060008054145b15610576576104cd826107d9565b7fe994c7aa84307d7bae079fb6ac03a74b9a3173f46959863da3a34bd5f17ca61b3383604051808373ffffffffffffffffffffffffffffffffffffffff1673ffffffffffffffffffffffffffffffffffffffff16815260200180602001838152602001828103825260078152602001807f796f752077696e00000000000000000000000000000000000000000000000000815250602001935050505060405180910390a16107b8565b60018214801561058857506002600054145b1561063f57610596826107d9565b7fe994c7aa84307d7bae079fb6ac03a74b9a3173f46959863da3a34bd5f17ca61b3383604051808373ffffffffffffffffffffffffffffffffffffffff1673ffffffffffffffffffffffffffffffffffffffff16815260200180602001838152602001828103825260088152602001807f796f75206c6f7365000000000000000000000000000000000000000000000000815250602001935050505060405180910390a16107b7565b60008214801561065157506001600054145b156107085761065f826107d9565b7fe994c7aa84307d7bae079fb6ac03a74b9a3173f46959863da3a34bd5f17ca61b3383604051808373ffffffffffffffffffffffffffffffffffffffff1673ffffffffffffffffffffffffffffffffffffffff16815260200180602001838152602001828103825260078152602001807f796f752077696e00000000000000000000000000000000000000000000000000815250602001935050505060405180910390a16107b6565b610711826107d9565b7fe994c7aa84307d7bae079fb6ac03a74b9a3173f46959863da3a34bd5f17ca61b3383604051808373ffffffffffffffffffffffffffffffffffffffff1673ffffffffffffffffffffffffffffffffffffffff16815260200180602001838152602001828103825260088152602001807f796f75206c6f7365000000000000000000000000000000000000000000000000815250602001935050505060405180910390a15b5b5b5b5b5b919050565b6060819050919050565b60008054905090565b60005481565b806000819055505056fea265627a7a72315820f7b8a2bfc7b40fcffbefb075d65503e6e697edc7a17d92d0c85096c9f91c046664736f6c63430005100032",
  "source": "// SPDX-License-Identifier: MIT\n\npragma solidity >=0.4.22 <0.8.0;\n\n/**@title rock paper scissors game. */\ncontract Game {\n    \n    //1. contract state which holds the last move\n    // rock = 0 \n    // paper = 1 \n    // scissors = 2 \n    \n    uint public state = 0;\n\n    event logOutcome(address player, string result, uint move);\n    // update event with move, player and result --> for subgraph development\n    // idea: create a player entity in the subgraph which also marks his play history? and if he has peaked or not\n    \n    \n    //1.5 for easy win\n    function peakState() public view returns(uint) {\n        return state;\n    }\n    \n    function updateState(uint _move) private  {\n        state = _move;\n    }\n    \n    //2. contract function with \"move\" as input\n    function playMove(uint _move) public returns(string memory) {\n        if (state == _move) {\n\n            emit logOutcome(msg.sender, \"draw\", _move);\n        }\n        else if (_move == 2 && state == 0) {\n            updateState(_move);\n            emit logOutcome(msg.sender, \"you lose\", _move);\n        }\n        else if (_move == 2 && state == 1) {\n            updateState(_move);\n            emit logOutcome(msg.sender, \"you win\", _move);\n        }\n        else if (_move == 1 && state == 0) {\n            updateState(_move);\n            emit logOutcome(msg.sender, \"you win\", _move);\n        }\n        else if (_move == 1 && state == 2) {\n            updateState(_move);\n            emit logOutcome(msg.sender, \"you lose\", _move);\n        }\n        else if (_move == 0 && state == 1) {\n            updateState(_move);\n            emit logOutcome(msg.sender, \"you win\", _move);\n        }\n        else  {\n            updateState(_move);\n            emit logOutcome(msg.sender, \"you lose\", _move);\n        }\n    }\n        \n    \n    function returnNumber(string memory _random) public pure returns(string memory) {\n        return _random;\n    }\n}",
  "sourcePath": "/Users/sebastianmarquardt/Documents/GameGraphFromContract/gamekovan/contracts/Game.sol",
  "compiler": {
    "name": "solc",
    "version": "0.5.16+commit.9c3226ce.Emscripten.clang"
  },
  "schemaVersion": "3.3.4",
  "updatedAt": "2021-04-21T19:33:28.159Z",
  "networkType": "ethereum",
  "devdoc": {
    "methods": {},
    "title": "rock paper scissors game. "
  },
  "userdoc": {
    "methods": {}
  }
}